:100000000C9463000C948B000C948B000C948B006C
:100010000C948B000C948B000C948B000C948B0034
:100020000C948B000C948B000C948B000C948B0024
:100030000C948B000C948B000C948B000C948B0014
:100040000C945F040C948B000C942D040C94070406
:100050000C948B000C948B000C948B000C948B00F4
:100060000C948B000C948B000000000024002700EF
:100070002A0000000000250028002B0000000000DE
:1000800023002600290004040404040404040202DA
:100090000202020203030303030301020408102007
:1000A0004080010204081020010204081020000012
:1000B0000008000201000003040700000000000027
:1000C0000000A9042C0711241FBECFEFD8E0DEBF2B
:1000D000CDBF21E0ACE1B1E001C01D92A13DB2076E
:1000E000E1F711E0A0E0B1E0ECE7F3E102C0059038
:1000F0000D92AC31B107D9F710E0C2E6D0E004C0F0
:100100002197FE010E94B907C136D107C9F70E94A5
:10011000E4040C94B1090C940000FC0147E050E0A9
:1001200080E02191042E01C0220F0A94EAF7820F89
:1001300041505109B0F708950895AF92BF92CF9200
:10014000DF92EF92FF920F931F93CF93DF936C0197
:100150007B018B01040F151FEB015E01AE18BF0878
:10016000C017D10759F06991D601ED91FC9101902A
:10017000F081E02DC6010995892B79F7C501DF9142
:10018000CF911F910F91FF90EF90DF90CF90BF9094
:10019000AF900895FC01538D448D252F30E0842FBE
:1001A00090E0821B930B541710F0CF96089501979F
:1001B0000895FC01918D828D981761F0A28DAE0F8C
:1001C000BF2FB11D5D968C91928D9F5F9F73928F13
:1001D00090E008958FEF9FEF08952FB7F8948091E6
:1001E000260190912701A0912801B09129012FBFEC
:1001F0008093320190933301A0933401B093350181
:100200008AE291E00E94D90097FF26C02FB7F894A8
:100210008091260190912701A0912801B091290198
:100220002FBF4091320150913301609134017091A0
:100230003501841B950BA60BB70B40912E015091F5
:100240002F01609130017091310184179507A60745
:10025000B707B0F28FEF9FEF0895FC01918D828D6B
:10026000981731F0828DE80FF11D858D90E008958B
:100270008FEF9FEF0895FC01918D228D892F90E0E3
:10028000805C9F4F821B91098F73992708958AE2A2
:1002900091E00E943B0121E0892B09F420E0822FAC
:1002A000089580E090E0892B29F00E944701811198
:1002B0000C9400000895FC01A48DA80FB92FB11D66
:1002C000A35ABF4F2C91848D90E001968F7399278C
:1002D000848FA689B7892C93A089B1898C9183706A
:1002E00080648C93938D848D981306C00288F38963
:1002F000E02D80818F7D80830895EF92FF920F9390
:100300001F93CF93DF93EC0181E0888F9B8D8C8DC1
:1003100098131AC0E889F989808185FF15C09FB7B5
:10032000F894EE89FF896083E889F9898081837078
:10033000806480839FBF81E090E0DF91CF911F9127
:100340000F91FF90EF900895F62E0B8D10E00F5F48
:100350001F4F0F731127E02E8C8D8E110CC00FB61E
:1003600007FCFACFE889F989808185FFF5CFCE01B6
:100370000E945B01F1CFEB8DEC0FFD2FF11DE35AD5
:10038000FF4FF0829FB7F8940B8FEA89FB89808139
:100390008062CFCFCF93DF93EC01888D8823B9F0B3
:1003A000AA89BB89E889F9898C9185FD03C0808180
:1003B00086FD0DC00FB607FCF7CF8C9185FFF2CFFD
:1003C000808185FFEDCFCE010E945B01E9CFDF91F7
:1003D000CF910895833081F028F4813099F08230F4
:1003E000A9F008958730A9F08830C9F08430B1F4BD
:1003F000809180008F7D03C0809180008F778093F3
:100400008000089584B58F7784BD089584B58F7D6D
:10041000FBCF8091B0008F778093B00008958091DA
:10042000B0008F7DF9CFCF93DF93282F30E0F90113
:10043000E255FF4F8491F901E656FF4FD491F9013F
:10044000EA57FF4FC491CC23A1F081110E94EA0129
:10045000EC2FF0E0EE0FFF1FE458FF4FA591B49191
:10046000EC91ED2381E090E009F480E0DF91CF9101
:10047000089580E090E0FACFCF92DF92EF92FF9262
:100480000F931F93CF93DF93062F6AE070E00E94D3
:1004900091077B01D0E0C0E010E083E2C82ED12CB0
:1004A0008CE00E9413028017910791F4C601019716
:1004B000F1F72196EC16FD069CF78FEF9FEFDF9189
:1004C000CF911F910F91FF90EF90DF90CF90089503
:1004D00090E080E0F4CF1F93CF93DF93282F30E09C
:1004E000F901E255FF4F8491F901E656FF4FD4918F
:1004F000F901EA57FF4FC491CC23A9F0162F8111BF
:100500000E94EA01EC2FF0E0EE0FFF1FEE58FF4FC4
:10051000A591B4918FB7F894EC91111108C0D095C2
:10052000DE23DC938FBFDF91CF911F910895DE2BE7
:10053000F8CFCF93DF9390E0FC01E656FF4F249174
:100540008A579F4FFC0184918823D1F090E0880F57
:10055000991FFC01E859FF4FA591B491FC01EE5899
:10056000FF4FC591D49161110EC09FB7F8948C9143
:10057000E22FE0958E238C932881E223E8839FBFAE
:10058000DF91CF9108958FB7F894EC91E22BEC9323
:100590008FBFF6CF3FB7F89480911D0190911E0157
:1005A000A0911F01B091200126B5A89B05C02F3F47
:1005B00019F00196A11DB11D3FBFBA2FA92F982F89
:1005C0008827BC01CD01620F711D811D911D42E084
:1005D000660F771F881F991F4A95D1F708958F924C
:1005E0009F92AF92BF92CF92DF92EF92FF924B0118
:1005F0005C010E94CA026B017C010E94CA026C1954
:100600007D098E099F09683E734081059105A8F315
:1006100021E0821A9108A108B10888EEC80E83E093
:10062000D81EE11CF11C81149104A104B10429F726
:10063000FF90EF90DF90CF90BF90AF909F908F9002
:100640000895CF93DF93EC0188819981009711F091
:100650000E945B08198218821D821C821B821A82EA
:10066000DF91CF910895FC0180819181009711F075
:100670000C945B0808950F931F93CF93DF93EC01C5
:1006800088819981009759F02A813B812617370785
:1006900030F081E0DF91CF911F910F9108958B0190
:1006A0006F5F7F4F0E94E408009759F09983888319
:1006B0001B830A832C813D81232B59F7FC01108277
:1006C000E8CF80E0E7CFEF92FF920F931F93CF9395
:1006D000DF936115710541F480E0DF91CF911F91A7
:1006E0000F91FF90EF90089541155105B1F07B01F6
:1006F000EC010C811D81040F151FB8010E943B0302
:10070000882351F3288139818C819D81B701820F23
:10071000931F0E94AA091D830C8381E0DECF0F93F3
:100720001F93CF93DF9300D0CDB7DEB78C016983E1
:100730001A8241E050E0BE016F5F7F4F0E94630369
:10074000811103C0C8010E942103C8010F900F90BE
:10075000DF91CF911F910F910895EF92FF920F9328
:100760001F93CF93DF93EC017B018A01BA010E94B2
:100770003B0381110BC0CE010E942103CE01DF910A
:10078000CF911F910F91FF90EF9008951D830C83DF
:10079000B701888199810E94AA09F0CFEF92FF9258
:1007A0000F931F93CF93DF93CDB7DEB729970FB683
:1007B000F894DEBF0FBECDBF8C01862FF8011182E9
:1007C000108213821282158214824AE09E012F5FEA
:1007D0003F4F7901B90190E00E943007F701019085
:1007E0000020E9F73197AF014E195F09B701C80141
:1007F0000E94AD0329960FB6F894DEBF0FBECDBFA1
:10080000DF91CF911F910F91FF90EF9008951F926C
:100810000F920FB60F9211242F933F934F935F9334
:100820006F937F938F939F93AF93BF93EF93FF93B8
:100830008AE291E00E945B01FF91EF91BF91AF913D
:100840009F918F917F916F915F914F913F912F91E8
:100850000F900FBE0F901F9018951F920F920FB61A
:100860000F9211242F938F939F93EF93FF93E09117
:100870003A01F0913B018081E0914001F09141010A
:1008800082FD1BC09081809143018F5F8F73209107
:100890004401821741F0E0914301F0E0E65DFE4F34
:1008A000958F80934301FF91EF919F918F912F91AD
:1008B0000F900FBE0F901F9018958081F4CF1F925C
:1008C0000F920FB60F9211242F933F938F939F9304
:1008D000AF93BF938091260190912701A0912801A9
:1008E000B091290130911C0123E0230F2D3758F5D9
:1008F0000196A11DB11D20931C01809326019093A8
:100900002701A0932801B093290180911D019091A6
:100910001E01A0911F01B09120010196A11DB11DE2
:1009200080931D0190931E01A0931F01B09320019D
:10093000BF91AF919F918F913F912F910F900FBEDB
:100940000F901F90189526E8230F0296A11DB11D48
:10095000D2CFEAE2F1E01382128288EE93E0A0E0C7
:10096000B0E084839583A683B7838AE091E0918386
:10097000808385EC90E09587848784EC90E097876E
:10098000868780EC90E0918B808B81EC90E0938B5C
:10099000828B82EC90E0958B848B86EC90E0978B39
:1009A000868B118E128E138E148EE7ECF1E011827D
:1009B0001082138212821582148250E040E06AE1B4
:1009C00071E0CF010C94AD03CF93DF93CDB7DEB7C9
:1009D000E4970FB6F894DEBF0FBECDBF789484B510
:1009E000826084BD84B5816084BD85B5826085BD2B
:1009F00085B5816085BD80916E00816080936E00B9
:100A000010928100809181008260809381008091AA
:100A1000810081608093810080918000816080935B
:100A200080008091B10084608093B1008091B0001B
:100A300081608093B00080917A00846080937A0016
:100A400080917A00826080937A0080917A00816040
:100A500080937A0080917A00806880937A00109267
:100A6000C100E0913A01F0913B0182E08083E09186
:100A70003601F09137011082E0913801F09139018F
:100A80008FEC808310924201E0913E01F0913F0192
:100A900086E08083E0913C01F0913D01808180619E
:100AA0008083E0913C01F0913D01808188608083EA
:100AB000E0913C01F0913D01808180688083E0916C
:100AC0003C01F0913D0180818F7D808361E087E072
:100AD0000E94990261E086E00E94990261E085E04F
:100AE0000E94990260E087E00E946B0260E086E06D
:100AF0000E946B0260E085E00E946B028E010F5F36
:100B00001F4FCE0189966C0193E2892E912C83E7C9
:100B1000682E712C80912401909125010A9709F08B
:100B20009AC088E2F80111928A95E9F761E08CE0B9
:100B30000E94990260E08CE00E946B0264E170E028
:100B400080E090E00E94EF0261E08CE00E946B0286
:100B5000C3010197F1F760E08CE00E94990260E028
:100B600080E590E00E943C02892B01F561E080E580
:100B700090E00E943C02892BC9F4580160E082E3B6
:100B800090E00E943C027C01892B81F48CE00E9461
:100B90001302019709F02AC1C4010197F1F7FFEF91
:100BA000EF1AFF0A88E0E816F10481F7609122014C
:100BB000C8010E94CE0360912301C6010E94CE03AA
:100BC00018AA1FA61AAA19AA1CAA1BAA42E050E03A
:100BD00068E171E0CE018F960E94AD034DA55EA540
:100BE00069A57AA5CE018F960E946303811104C086
:100BF000CE018F960E9421036AE2CE018F960E9459
:100C00008F037C014D815E8169817A810E9463033B
:100C1000811103C0C7010E9421036AE2C7010E943B
:100C20008F036AE00E948F03FC014481558160813B
:100C300071818AE291E00E949D00CE018F960E9410
:100C40003303C6010E943303C8010E94330310928C
:100C50002501109224018091240190912501019693
:100C600090932501809324018AE291E00E943B0148
:100C7000181619060CF08AC01A8219821C821B826F
:100C80001E821D8250E040E06AE171E0C8010E94CE
:100C9000AD030E94ED0097FD0CC08A30910549F02C
:100CA00089A71AA641E050E0B601C8010E9463037B
:100CB000F0CF8091C7019091C801009709F47BC0E3
:100CC00069817A816115710509F473C04091C90188
:100CD0005091CA012D813E814217530708F469C023
:100CE0000E94AA098D819E819093CC018093CB01B3
:100CF0001E821D82C8010E9433038091CB01909116
:100D0000CC01892B31F0E091C701F091C8013097F7
:100D100021F410922101E1E2F1E0808160E0803372
:100D200009F061E087E00E946B028091CB01909115
:100D3000CC01029738F0E091C701F091C8013097DB
:100D400009F050C010922101E1E2F1E0808160E001
:100D5000803309F061E086E00E946B028091CB0154
:100D60009091CC01039730F0E091C701F091C80158
:100D70003097D1F510922101E1E2F1E0808160E04D
:100D8000803309F061E085E00E946B0264EF71E05E
:100D900080E090E00E94EF0280E090E0892B09F46F
:100DA000B9CE0E944701882309F4B1CE0E94000009
:100DB000AECE0E945B0889819A819093C80180938E
:100DC000C7018B819C819093CA018093C9018D8159
:100DD0009E819093CC018093CB011A8219821C8250
:100DE0001B8286CF3196B2CF3296C8CF81E0F4E035
:100DF000EF16F1040CF480E0F50181935F01CE164B
:100E0000DF0609F0BBCE60E082E390E00E943C0286
:100E1000892B09F0CBCEC8010E948D00E82ECE01AF
:100E200009960E948D00F82ECE0141960E948D00F9
:100E3000B82ECE0149960E948D00A82ECE01819633
:100E40000E948D00FE0CFB0CFA0C8F11AFCEB092FD
:100E50002301E0922201AACE87EC91E00C943303A7
:100E6000BB27FB015527AA27880F991FAA1FA41784
:100E700010F0A41B83955051B9F7A05DAA3308F078
:100E8000A95DA193009779F7B111B1931192CB01AC
:100E90000C944A07DC01FC01672F71917723E1F77D
:100EA000329704C07C916D9370836291AE17BF0737
:100EB000C8F308952F923F924F925F926F927F9264
:100EC0008F929F92AF92BF92CF92DF92EF92FF925A
:100ED0000F931F93CF93DF93CDB7DEB7CA1BDB0B06
:100EE0000FB6F894DEBF0FBECDBF09942A883988AB
:100EF00048885F846E847D848C849B84AA84B984B2
:100F0000C884DF80EE80FD800C811B81AA81B981BD
:100F1000CE0FD11D0FB6F894DEBF0FBECDBFED01D1
:100F2000089597FB072E16F4009407D077FD09D09B
:100F30000E94A50707FC05D03EF4909581959F4F30
:100F40000895709561957F4F0895AA1BBB1B51E1D1
:100F500007C0AA1FBB1FA617B70710F0A61BB70B29
:100F6000881F991F5A95A9F780959095BC01CD01CE
:100F70000895EE0FFF1F0590F491E02D09940F9353
:100F80001F93CF93DF938230910510F482E090E0BD
:100F9000E091CF01F091D00130E020E0B0E0A0E09E
:100FA000309799F42115310509F44AC0281B390BF3
:100FB00024303105D8F58A819B816115710589F14D
:100FC000FB0193838283FE0111C040815181028124
:100FD000138148175907E0F04817590799F41097FB
:100FE00061F012960C93129713961C933296CF01D0
:100FF000DF91CF911F910F9108950093CF0110932E
:10100000D001F4CF2115310551F04217530738F0C4
:10101000A901DB019A01BD01DF01F801C1CFEF0198
:10102000F9CF9093D0018093CF01CDCFFE01E20F95
:10103000F31F819391932250310939832883D7CFAD
:101040002091CD013091CE01232B41F4209102015A
:10105000309103013093CE012093CD012091000106
:10106000309101012115310541F42DB73EB7409172
:10107000040150910501241B350BE091CD01F09145
:10108000CE01E217F307A0F42E1B3F0B28173907F8
:1010900078F0AC014E5F5F4F2417350748F04E0FD4
:1010A0005F1F5093CE014093CD01819391939FCFC9
:1010B000F0E0E0E09CCFCF93DF930097E9F0FC01F4
:1010C000329713821282A091CF01B091D001ED012D
:1010D00030E020E01097A1F420813181820F931F2E
:1010E0002091CD013091CE012817390709F061C058
:1010F000F093CE01E093CD01DF91CF910895EA0105
:10110000CE17DF07E8F54A815B819E014115510545
:10111000B1F7E901FB83EA8349915991C40FD51FC7
:10112000EC17FD0761F4808191810296840F951F71
:10113000E90199838883828193819B838A83F0E08C
:10114000E0E012968D919C9113970097B9F52D913F
:101150003C911197CD010296820F931F2091CD01F2
:101160003091CE012817390739F6309751F5109292
:10117000D0011092CF01B093CE01A093CD01BCCF8E
:10118000D383C28340815181840F951FC817D9072B
:1011900061F44E5F5F4F88819981480F591F5183D9
:1011A00040838A819B81938382832115310509F0D5
:1011B000B0CFF093D001E093CF019ECFFD01DC01D1
:1011C000C0CF13821282D7CFB0E0A0E0EAEEF8E001
:1011D0000C945C078C01009751F4CB010E94BF076F
:1011E0008C01C801CDB7DEB7E0E10C947807FC01B3
:1011F000E60FF71F9C0122503109E217F30708F4AC
:101200009DC0D901CD91DC911197C617D70798F0F1
:10121000C530D10530F3CE0104978617970708F340
:10122000C61BD70B2297C193D1936D937C93CF01AB
:101230000E945B08D6CF5B01AC1ABD0A4C018C0E34
:101240009D1EA091CF01B091D001512C412CF12CC9
:10125000E12C109731F58091CD019091CE01881548
:10126000990509F05CC04616570608F058C08091F1
:10127000000190910101009741F48DB79EB7409114
:10128000040150910501841B950BE817F90708F03C
:1012900055C0F093CE01E093CD01F90171836083D5
:1012A000A0CF8D919C91119712966C9012971396E6
:1012B0007C901397A815B90559F56C0142E0C40E4E
:1012C000D11CCA14DB0420F1AC014A195B09DA0114
:1012D0001296159780F06282738251834083D90100
:1012E0006D937C93E114F10471F0D7011396FC9394
:1012F000EE93129776CF22968C0F9D1FF901918362
:101300008083F301EFCFF093D001E093CF0169CF59
:101310004816590608F42C017D01D3019ACFCB0160
:101320000E94BF077C01009749F0AE01B8010E94FE
:10133000A109C8010E945B08870153CF10E000E0BB
:1013400050CFFB01DC0102C001900D924150504092
:10135000D8F70895FB01DC0101900D920020E1F720
:10136000089510E0C2E6D0E004C0FE010E94B90773
:0C1370002196C336D107C9F7F894FFCFCF
:10137C000000D1018000000000007D019D00CA002A
:0C138C00CA013B01D9002D01442A0000D9
:00000001FF
